S1138000414A4A004C07807818FBC210A2FF019A2B
S11380109C49DFA9C08D24DF9C20DFA9101C42DF0E
S1138020A90B8D66DFA9008D67DFA9080C43DFA9C2
S1138030258D70DF4C68804808E22048A9022C484E
S1138040DFF0FB688D71DF28686008E220A9012C4D
S113805048DFF0FBAD71DF28604808E220AD48DF5F
S1138060286A686080FE80FE18FBC230A9FF011BED
S1138070A97F015BA07D80BBC8C87C00008F8138CC
S113808081DA80B58162812281B58131930002EA6F
S113809080B5813193B3972382FE80B581EC94EC53
S11380A0946A976995EC94EC94ED8A00000004239B
S11380B0544942207392B8807E00AE8000033E494A
S11380C04E2047940000BD800004424153452047A0
S11380D0940200C9800003424C4B204794040020C2
S11380E047941000D6800002445020479406002094
S11380F047941400E78000064C41544553542047EC
S11381009408002047941200F78000035343522040
S113811047940A002047940C000B810005535441F6
S113812054452047940E001C810003544942207397
S11381309216002A810001307B3A3A5B6401BBC885
S1138140C87C000036810002424C7B3A3A5BA9208D
S1138150008501BBC8C87C00004781000546414C2E
S113816053457B3A3A5B6401BBC8C87C00005C8120
S11381700004545255457B3A3A5B6401C601BBC8BE
S1138180C87C000071810007444543494D414C209F
S11381902B9131930A00CE80B581508B87810003E7
S11381A0484558202B9131931000CE80B581508BD7
S11381B09F81000121A50392017B1A1A1A1A5BBB45
S11381C0C8C87C0000B38100022B2118A5037201EA
S11381D092017B1A1A1A1A5BBBC8C87C0000C881BA
S11381E000012C202B918E82B58131930100D38222
S11381F03682508BE18100023221202B9176841249
S113820084B581C082B581508BF781000232402051
S11382102B91EF83C082238276842382508B0C823D
S1138220000140B2018501BBC8C87C000021820066
S113823005414C4C4F54202B91EA80CB81508B301C
S11382408200024321A503E2209201C2207B1A1A74
S11382501A1A5BBBC8C87C000042820002432C206F
S11382602B918E8245823193010006833682508B96
S11382705C8200024340E220B20185016402C22014
S1138280BBC8C87C00007382000448455245202BBB
S113829091EA802382508B89820005414C49474EE4
S11382A0BBC8C87C00009A820007414C49474E4530
S11382B044BBC8C87C0000A982000543454C4C2B34
S11382C0E601E601BBC8C87C0000BA82000543454C
S11382D04C4C530601BBC8C87C0000CD820005434A
S11382E04841522BE601BBC8C87C0000DE82000571
S11382F0434841522DC601BBC8C87C0000EF820030
S1138300054348415253BBC8C87C000000830005A4
S11383103244524F507B1A1A1A1A5BBBC8C87C00ED
S1138320000F830004324455507B3A3A3A3A5BA535
S1138330058501A5078503BBC8C87C00002483000C
S113834005324F5645527B3A3A3A3A5BA5098501C4
S1138350A50B8503BBC8C87C0000408300043252CF
S11383604F54202B91A50B48A50948A507850BA5BB
S1138370058509A5038507A5018505688501688527
S113838003BBC8C87C00005D8300053253574150CD
S1138390A50348A50148A5078503A50585016885AA
S11383A005688507BBC8C87C00008A8300043F4475
S11383B05550A501D039BBC8C87C0000AD83000569
S11383C04445505448202B91489731937F0176843B
S11383D098850486508BBF83000444524F507B1A07
S11383E01A5BBBC8C87C0000D98300034455507B8A
S11383F03A3A5BA5038501BBC8C87C0000EB830047
S1138400034E4950A501850380D4008400044F56CF
S113841045527B3A3A5BA5058501BBC8C87C000080
S11384200D8400045049434BA5010AAAB5038501F4
S1138430BBC8C87C000023840004524F4C4C060186
S1138440A601F00EB50348B5019503CACAD0F86871
S113845085034CDE8339840003524F54A605A503DB
S11384608505A50185038601BBC8C87C0000588426
S1138470000453574150A501A60385038601BBC8D8
S1138480C87C0000718400045455434B202B917622
S1138490841284508B87840003323E52A50348A57E
S11384A001487B1A1A1A1A5BBBC8C87C000098845E
S11384B0000332523E7B3A3A3A3A5B68850168855A
S11384C003BBC8C87C0000B18400033252407B3A2D
S11384D03A3A3A5BA3018501A3038503BBC8C87C70
S11384E00000CA8400023E52A501487B1A1A5BBBF5
S11384F0C8C87C0000E5840001497B3A3A5BA301CB
S11385008501BBC8C87C0000F88400014A7B3A3A64
S11385105BA3058501BBC8C87C00000B8500025223
S11385203E7B3A3A5B688501BBC8C87C00001E8567
S1138530000252407B3A3A5BA3018501BBC8C87C68
S11385400000318500012A202B914588DE83508B61
S1138550458500022A2F202B91E884458821853AFD
S1138560867684DE83508B538500052A2F4D4F4435
S1138570202B91E884458821853A86508B6A8500B2
S1138580012B18A503650185037B1A1A5BBBC8C8B8
S11385907C0000808500012D38A503E50185037B5F
S11385A01A1A5BBBC8C87C0000968500012F202BDB
S11385B091E884808821853A867684DE83508BAC6A
S11385C08500042F4D4F44202B91E8848088218519
S11385D03A86508BC2850002312BE601BBC8C87CA9
S11385E00000D7850002312DC601BBC8C87C00003D
S11385F0E5850002322A0601BBC8C87C0000F38569
S11386000002322FA5012A6601BBC8C87C000020E5
S11386102B914789EA921A86C986508B01860003FA
S1138620414253A50110034CC986BBC8C87C000055
S11386301F860006464D2F4D4F44202B91EF83E8B3
S1138640842983C38AE884E884C98734852386120D
S113865089768421850F86768421854789EA9273F9
S113866086C9861284EA92738634855C84988576FA
S113867084E8852185DE83508B338600034D415881
S1138680202B9129839989EA928D867684DE835002
S11386908B7C8600034D494E202B912983DA89EA8D
S11386A092A5867684DE83508B948600034D4F44D6
S11386B0202B91E884808821853A86DE83508BAC18
S11386C08600064E454741544538A90000E501851A
S11386D001BBC8C87C0000C2860004554D4158A5A2
S11386E001C503B0034CDE834C0484DA86000455D0
S11386F04D494EA501C50390034CDE834C048420F0
S11387002B914789EA920A871988508BEE860002DA
S1138710442B18A50765038507A505650185057B19
S11387201A1A1A1A5BBBC8C87C00000F87000244DF
S11387302D38A507E5038507A505E50185057B1A01
S11387401A1A1A5BBBC8C87C00002E870003443089
S11387503CA6017B1A1A5B64018A1002C601BBC8DD
S1138760C87C00004D87000344303DA6017B1A1AE3
S11387705B64018AD002C601BBC8C87C000067875D
S1138780000344322A06032601BBC8C87C000081CA
S113879087000344322FA5012A66016603BBC8C8BB
S11387A07C000092870002443C202B913187518742
S11387B0508BA6870002443D202B9131876B875054
S11387C08BB587000444414253A50110034C19881A
S11387D0BBC8C87C0000C4870004444D4158202B0A
S11387E09146834683A987EA92ED87908315835047
S11387F08BD9870004444D494E202B9146834683F0
S1138800A987418AEA920A8890831583508BF4875A
S11388100007444E454741544538A90000E5038507
S113882003A90000E5018501BBC8C87C00001188CC
S11388300003443E537B1A1A5BBBC8C87C0000315A
S11388408800024D2A202B912983C38AE8847684E8
S1138850238676842386E6882185FF86508B42888A
S113886000024D2B18A501650585059002E6037BE2
S11388701A1A5BBBC8C87C000061880003533E44DD
S11388807B3A3A5B6401A5031002C601BBC8C87CED
S113889000007C880006534D2F52454D202B912912
S11388A083C38AE8841284E8842386E884C9872100
S11388B0851289768421850F86768421850F8650DA
S11388C08B9588000355442A202B91EF83E884E696
S11388D088DE8376842185E6885C848285508BC417
S11388E0880003554D2AA501486401A21000A50380
S11388F04A9007A301186501850166016603CAD081
S1138900ED68BBC8C87C0000E2880006554D2F4DB9
S11389104F4438A503E501B01AA211002605CAF098
S1138920192603B006A503C50190F1A503E5018549
S11389300380E9A9FFFF850385057B1A1A5B4C7642
S1138940840B890002303CA50164011002C601BBFE
S1138950C8C87C000044890003303C3EA501640182
S1138960F002C601BBC8C87C000058890002303D33
S1138970A5016401D002C601BBC8C87C00006D8992
S11389800002303EA50164013004F002C601BBC8F8
S1138990C87C0000818900013C202B917684DA890F
S11389A0508B978900023C3EA6017B1A1A5BE401B6
S11389B06401F002C601BBC8C87C0000A58900019F
S11389C03DA6017B1A1A5BE4016401D002C601BB17
S11389D0C8C87C0000BF8900013EA6017B1A1A5B4F
S11389E08A38E501640150034900801002C601BBC6
S11389F0C8C87C0000D8890002553CA6017B1A1A1D
S1138A005BE4016401F0049002C601BBC8C87C00A9
S1138A1000F8890002553E202B917684FB89508B07
S1138A20148A0003414E44A501250385037B1A1AC9
S1138A305BBBC8C87C0000238A0006494E564552D9
S1138A4054A50149FFFF8501BBC8C87C00003A8AD0
S1138A5000064C5348494654A601087B1A1A5B2861
S1138A60F00AE01000B00B0601CAD0FBBBC8C87CFA
S1138A7000006401BBC8C87C0000518A00024F5248
S1138A80A501050385037B1A1A5BBBC8C87C0000DB
S1138A907D8A0006525348494654A601087B1A1A97
S1138AA05B28F00AE01000B00B4601CAD0FBBBC83B
S1138AB0C87C00006401BBC8C87C0000938A000322
S1138AC0584F52A501450385037B1A1A5BBBC8C8DE
S1138AD07C0000202B915C84EA92E08A6995ED8AFF
S1138AE01583508BBF8A000541424F5254202B916D
S1138AF0F48A5F8BA97F015BBBC8C87C0000202B74
S1138B0091319320005F82E381508BE78A00064312
S1138B105245415445202B91FE802382E3813881C4
S1138B205F828E82FE80B5814A811E8F7682DA85CD
S1138B303682508B0E8B000745584543555445A645
S1138B40017B1A1A5BCADA60378B00044558495412
S1138B507ABBC8C87C00004B8B0004515549542093
S1138B602B918F8B38812281B58138811481B58115
S1138B70198EEA92788B508D228123827089EA9231
S1138B808B8BEC93024F6B6995EC94C992708BA913
S1138B90FF011BBBC8C87C00005A8B00073F4E5521
S1138BA04D424552202B91EF83388138815C847784
S1138BB090E28BE884298CEA92C78B218515831572
S1138BC0833881C992D78B158304842185EA92D393
S1138BD08BC9863193FFFF508B9C8B00053F534913
S1138BE0474E202B911284768231932C009885EF86
S1138BF083238631930100C189278AEF83EA920D8A
S1138C008CDA85E884319301009A8F2185508B207A
S1138C102B9129834582E4827684DE8F508BDC8B12
S1138C2000073E4E554D424552202B91EF83EA9268
S1138C305C8C12847682DB8C7089EA92428CDE83AF
S1138C40508BE8849083CE802382C88821856488F1
S1138C509083319301009A8FC9922C8C508B218C74
S1138C600006414343455054202B9112848285E8E9
S1138C708512841B95EF8331930D00A889EA92C76E
S1138C808CEF8331930800C189128431937F00C132
S1138C9089808AEA92B58CDE83E885E8841284218F
S1138CA085DF8631930800059537953193080005D3
S1138CB095C992C38CEF83059512844582DA851297
S1138CC084F386C992738CDE8304847684988550F9
S1138CD08B618C000644494749543F202B91EF8314
S1138CE031933900DA8931930001278A8285EF8331
S1138CF031934001DA8931930701278A98853193AA
S1138D0030009885EF83CE802382FB89508BD48CEE
S1138D1000084556414C55415445202B91E884E8C0
S1138D2084A68E2185218576811481B5813881C1FF
S1138D3080B5810381B581DF80B581508D578EDE8A
S1138D4083508B118D0009494E544552505245545D
S1138D50202B914A811E8FEF837682EA92A78DB3EE
S1138D608DB283EA92818DDA852281238270898093
S1138D708AEA927B8D3F8BC9927D8DE381C992A350
S1138D808DA48BEA92958D22812382EA92A38D246D
S1138D9093C992A38D7790699531933F000595EC23
S1138DA094ED8AC992538DDE83508B468D00044620
S1138DB0494E44202B91FE8023822983128476829B
S1138DC0E4826E8EEF83EA92D28DDE83048E238258
S1138DD0EF837089EA92BA8DEF83EA92F08D04846E
S1138DE0EF83FB8D7684F28D708931930100808A44
S1138DF0508B202B91E8857682508B202B91779095
S1138E008285508B202B91319303009885508BAE33
S1138E108D0006524546494C4C202B910D8F70898C
S1138E20EA92428E2E81EF83B3802382688C379539
S1138E300381B581DF80B5813881C180B5817681B8
S1138E40508B6281508B128E000D524553544F52F9
S1138E50452D494E505554202B91C180B581038135
S1138E60B581DF80B5811481B5817681508B5AA696
S1138E7001F014A00000E220B105D103D006C8CA55
S1138E80D0F68003A2FFFFC2207B1A1A1A1A5B864F
S1138E90017ABBC8C87C0000498E000A534156457C
S1138EA02D494E505554202B9114812382DF802369
S1138EB08203812382C1802382508BA503F010A5F5
S1138EC001E220D205C220F006E605C60380EC4C80
S1138ED0DE83A503F010A501E220D205C220D0064E
S1138EE0E605C60380EC4CDE839B8E0006534F558B
S1138EF0524345202B91DF80238203812382508BB0
S1138F00EC8E0009534F555243452D4944202B9173
S1138F1014812382508B038F0004574F5244202B1B
S1138F2091EF83F38EC18023829A8FEF83E8845C70
S1138F3084D28E1284E8845C84BB8EEF83EA9243ED
S1138F408FF582218521855C849885C180CB818CB5
S1138F508498858E820F8C8E824A811284779082C7
S1138F60854582508B198F00092D545241494C4933
S1138F704E475AA401F00FE22088B103C920D00360
S1138F808810F7C220C884017ABBC8C87C00006876
S1138F908F00072F535452494E47202B915C841263
S1138FA08482855C845C849885508B928F00054212
S1138FB04C414E4B202B91B283EA92D18F12848282
S1138FC085768498924A81FA8445826393C58F504A
S1138FD08BDE83508BAE8F0005434D4F56455AA60A
S1138FE001F00FA00000E220B1059103C8CAD0F837
S1138FF0C2207B186906005B7ABBC8C87C0000D815
S11390008F0006434D4F56453E5AA601F00EA4016B
S1139010E22088B1059103CAD0F8C2207B18690602
S1139020005B7ABBC8C87C000002900007434F4D28
S113903050415245A5010505F026A501F01AA505E4
S1139040F01BE220B207D203C2209011D00AE6033B
S1139050E607C601C60580DCA901008003A9FFFF5D
S113906085077B186906005BBBC8C87C00002C9090
S11390700005434F554E54202B91EF83E4827684B0
S11390807682508B71900006534541524348202B01
S113909091BBC8C87C00008790800128202B9131A7
S11390A09329001E8FDE83508B9A9080022E2820F5
S11390B02B91319329001E8F77906995508BAC903A
S11390C080022E22202B91D39331936995E3815012
S11390D08BC19080052B4C4F4F50202B913193F333
S11390E090E381E381B283EA92F1908E827684B533
S11390F081508BA6017B1A1A5B188A63018301C312
S113910003B00AB90000A8BBC8C87C0000C8C8687E
S113911068BBC8C87C0000D49000013A202B91158C
S11391208B31932B91FE8AD994508BFA5AE89BBBCE
S1139130C8C87C00001A9100073A4E4F4E414D4575
S1139140202B918E8231932B91FE8AD994508B38A7
S11391509180013B202B913193508BE381B7945044
S11391608B529180033F444F202B9131937B91E3A9
S1139170818E823881E3818E82508BA5014503F074
S113918005C8C84C98927B1A1A1A1A5B4CC9926487
S113919091000932434F4E5354414E54202B9115A4
S11391A08B3193AD91FE8AE381E381508BFA7B3A54
S11391B03A3A3A5BBD01008501BD03008503BBC893
S11391C0C87C000092918008324C49544552414C6D
S11391D0202B913193DF91E381E381E381508B7BF9
S11391E03A3A3A3A5BB900008501B902008503C8EE
S11391F0C8C8C8BBC8C87C0000C7918009325641A2
S1139200524941424C45202B91158B31937C94FE5D
S11392108A31930200D3823682508BFC91800641BE
S1139220424F525422202B91D3933193D38AE3811A
S1139230508B1E928005414741494E202B9131931A
S1139240C992E381E381508B3592800542454749B9
S11392504E202B918E82508B4B920008434F4E53DD
S113926054414E54202B91158B31937392FE8AE313
S113927081508BFA7B3A3A5BBD01008501BBC8C8BB
S11392807C00005B928002444F202B913193989292
S1139290E38138818E82508BA50348A501487B1A4F
S11392A01A1A1A5BBBC8C87C000086928004454C1D
S11392B05345202B913193C992E3818E823881E307
S11392C0818E827684B581508BB90000A8BBC8C852
S11392D07C0000AD9280024946202B913193EA92A2
S11392E0E3818E823881E381508BA6017B1A1A5B5D
S11392F08AF0D6C8C8BBC8C87C0000D69280094989
S11393004D4D454449415445202B9131938000FEF5
S1139310802382E8854582508BFE9280074C495415
S11393204552414C202B9131933193E381E3815099
S11393308B7B3A3A5BB900008501C8C8BBC8C87CBE
S113934000001C9380044C4F4F50202B91319363A9
S113935093E381E381B283EA9261938E827684B54A
S113936081508BA3011A8301C303B00AB90000A87A
S1139370BBC8C87C0000C8C86868BBC8C87C0000FB
S113938045938008504F5354504F4E45202B914ADB
S1139390811E8FB38DEF837089EC93013FD38A478D
S11393A089EA92B19331933193E381E381C992B312
S11393B093E381508B839380075245435552534521
S11393C0202B91FE802382FB8DE381508BB8938008
S11393D0025322202B913193EC93E38131932200A9
S11393E01E8F7682DA85B1823682508B202B9121B2
S11393F085779029838285B182E884508BD09380CD
S1139400045448454E202B918E827684B581508B2E
S113941000948005554E54494C202B913193EA9287
S1139420E381E381508B1394000455534552202B60
S113943091158B31934794FE8AE381508B299400D4
S1139440062855534552297B3A3A5BFA18BD010068
S11394506900008501BBC8C87C0000409400085620
S113946041524941424C45202B91158B31937C94B8
S1139470FE8A31930100D3823682508B7B3A3A5B69
S1139480681A8501BBC8C87C00005E940005574F6C
S1139490524453202B91FE802382EF837790699569
S11394A03795048E2382EF837089EA929A94DE833F
S11394B0508B8D9480015B202B9138812281B58162
S11394C0508BB59480015C202B91319301001E8F49
S11394D0DE83508BC59400015D202B913193FFFFF7
S11394E02281B581508BD79400024352202B9131B5
S11394F0930D00059531930A000595508BE994006E
S113950004454D4954A5012037807B1A1A5BBBC81A
S1139510C87C0000009500034B4559204A8029FF70
S113952000AA7B3A3A5B8601BBC8C87C0000179549
S113953000055350414345202B914A810595508B9A
S113954031950006535041434553202B91EF8384BA
S113955089EA925D953795E885C9924D95DE8350E9
S11395608B4395000454595045202B91B283EA92C1
S113957088951284828576849892FA8476820595F9
S113958063937A95C9928A95DE83508B6495000122
S113959023202B91CE802382E8843881348512895C
S11395A05C845C84218512895C845C84EF833193C0
S11395B00900DA8931930700278A828531933000C4
S11395C082852B96508B8F950002233E202B91157C
S11395D083EF802382459612849885508BC9950029
S11395E0022353202B9191952983808A7089EA92D2
S11395F0E695508BE09500012E202B911896EF8371
S113960023863881E3955C845296CC956995379589
S1139610508BF79500023C23202B914596EF80B5A3
S113962081508B15960004484F4C44202B91319364
S1139630FFFFEF80CB81EF8023824582508B2696FB
S11396400003504144207392C600419600045349DC
S1139650474E202B914789EA92619631932D002B36
S113966096508B4D960002552E202B9118963881DA
S1139670E395CC9569953795508BA501290F000981
S11396803000C93A0090036906002037804CDE831D
S1139690669600052E42595445202B91EF83319351
S11396A004009A8A7A967A963795508B9396000599
S11396B02E574F5244202B91EF8331930C009A8AFA
S11396C07A96EF83319308009A8A7A96EF833193DE
S11396D004009A8A7A967A963795508BAF9600034F
S11396E02E4450202B914897B596508BDF9600035B
S11396F02E5250202B915D97B596508BEF96000219
S11397002E53202B9131937B00059537954897DA9A
S1139710853193800176847B912997FA842382B5DD
S11397209631930200F3901B9731937D0005953792
S113973095508BFF9600013F202B912382B59650C4
S11397408B369700034044500B7B3A3A5B688501A3
S1139750BBC8C87C0000449700034052507B3A3A8F
S11397605BBA8601BBC8C87C0000202B91EC931C1B
S11397705736354332363553584220414E532D46E1
S11397806F727468205B31362E30355D508B59977B
S1139790000342594578D838FB6CFCFF91970006CA
S11397A0554E55534544202B91319300808E829819
S10897B085508B9F971A
S113FF80648064806480648064806480648064804D
S113FF90668066806680668066806680668066802D
S113FFA0668066806680668066806680668066801D
S113FFB0668066806680668066806680668066800D
S113FFC0648064806480648064806480648064800D
S113FFD066806680668066806680668066806680ED
S113FFE066806680668066806680668066806680DD
S113FFF0668066806680668066806680078066802C
S9030000FC
